{
  "_format": "hh-sol-artifact-1",
  "contractName": "Color",
  "sourceName": "contracts/Color.sol",
  "abi": [
    {
      "inputs": [],
      "stateMutability": "nonpayable",
      "type": "constructor"
    },
    {
      "anonymous": false,
      "inputs": [
        {
          "indexed": true,
          "internalType": "address",
          "name": "owner",
          "type": "address"
        },
        {
          "indexed": true,
          "internalType": "address",
          "name": "approved",
          "type": "address"
        },
        {
          "indexed": true,
          "internalType": "uint256",
          "name": "tokenId",
          "type": "uint256"
        }
      ],
      "name": "Approval",
      "type": "event"
    },
    {
      "anonymous": false,
      "inputs": [
        {
          "indexed": true,
          "internalType": "address",
          "name": "owner",
          "type": "address"
        },
        {
          "indexed": true,
          "internalType": "address",
          "name": "operator",
          "type": "address"
        },
        {
          "indexed": false,
          "internalType": "bool",
          "name": "approved",
          "type": "bool"
        }
      ],
      "name": "ApprovalForAll",
      "type": "event"
    },
    {
      "anonymous": false,
      "inputs": [
        {
          "indexed": false,
          "internalType": "address",
          "name": "account",
          "type": "address"
        }
      ],
      "name": "Paused",
      "type": "event"
    },
    {
      "anonymous": false,
      "inputs": [
        {
          "indexed": true,
          "internalType": "bytes32",
          "name": "role",
          "type": "bytes32"
        },
        {
          "indexed": true,
          "internalType": "bytes32",
          "name": "previousAdminRole",
          "type": "bytes32"
        },
        {
          "indexed": true,
          "internalType": "bytes32",
          "name": "newAdminRole",
          "type": "bytes32"
        }
      ],
      "name": "RoleAdminChanged",
      "type": "event"
    },
    {
      "anonymous": false,
      "inputs": [
        {
          "indexed": true,
          "internalType": "bytes32",
          "name": "role",
          "type": "bytes32"
        },
        {
          "indexed": true,
          "internalType": "address",
          "name": "account",
          "type": "address"
        },
        {
          "indexed": true,
          "internalType": "address",
          "name": "sender",
          "type": "address"
        }
      ],
      "name": "RoleGranted",
      "type": "event"
    },
    {
      "anonymous": false,
      "inputs": [
        {
          "indexed": true,
          "internalType": "bytes32",
          "name": "role",
          "type": "bytes32"
        },
        {
          "indexed": true,
          "internalType": "address",
          "name": "account",
          "type": "address"
        },
        {
          "indexed": true,
          "internalType": "address",
          "name": "sender",
          "type": "address"
        }
      ],
      "name": "RoleRevoked",
      "type": "event"
    },
    {
      "anonymous": false,
      "inputs": [
        {
          "indexed": true,
          "internalType": "address",
          "name": "from",
          "type": "address"
        },
        {
          "indexed": true,
          "internalType": "address",
          "name": "to",
          "type": "address"
        },
        {
          "indexed": true,
          "internalType": "uint256",
          "name": "tokenId",
          "type": "uint256"
        }
      ],
      "name": "Transfer",
      "type": "event"
    },
    {
      "anonymous": false,
      "inputs": [
        {
          "indexed": false,
          "internalType": "address",
          "name": "account",
          "type": "address"
        }
      ],
      "name": "Unpaused",
      "type": "event"
    },
    {
      "inputs": [],
      "name": "DEFAULT_ADMIN_ROLE",
      "outputs": [
        {
          "internalType": "bytes32",
          "name": "",
          "type": "bytes32"
        }
      ],
      "stateMutability": "view",
      "type": "function"
    },
    {
      "inputs": [],
      "name": "MINTER_ROLE",
      "outputs": [
        {
          "internalType": "bytes32",
          "name": "",
          "type": "bytes32"
        }
      ],
      "stateMutability": "view",
      "type": "function"
    },
    {
      "inputs": [],
      "name": "PAUSER_ROLE",
      "outputs": [
        {
          "internalType": "bytes32",
          "name": "",
          "type": "bytes32"
        }
      ],
      "stateMutability": "view",
      "type": "function"
    },
    {
      "inputs": [
        {
          "internalType": "address",
          "name": "to",
          "type": "address"
        },
        {
          "internalType": "uint256",
          "name": "tokenId",
          "type": "uint256"
        }
      ],
      "name": "approve",
      "outputs": [],
      "stateMutability": "nonpayable",
      "type": "function"
    },
    {
      "inputs": [
        {
          "internalType": "address",
          "name": "owner",
          "type": "address"
        }
      ],
      "name": "balanceOf",
      "outputs": [
        {
          "internalType": "uint256",
          "name": "",
          "type": "uint256"
        }
      ],
      "stateMutability": "view",
      "type": "function"
    },
    {
      "inputs": [
        {
          "internalType": "uint256",
          "name": "tokenId",
          "type": "uint256"
        }
      ],
      "name": "burn",
      "outputs": [],
      "stateMutability": "nonpayable",
      "type": "function"
    },
    {
      "inputs": [
        {
          "internalType": "uint256",
          "name": "",
          "type": "uint256"
        }
      ],
      "name": "colors",
      "outputs": [
        {
          "internalType": "string",
          "name": "",
          "type": "string"
        }
      ],
      "stateMutability": "view",
      "type": "function"
    },
    {
      "inputs": [
        {
          "internalType": "uint256",
          "name": "tokenId",
          "type": "uint256"
        }
      ],
      "name": "getApproved",
      "outputs": [
        {
          "internalType": "address",
          "name": "",
          "type": "address"
        }
      ],
      "stateMutability": "view",
      "type": "function"
    },
    {
      "inputs": [
        {
          "internalType": "bytes32",
          "name": "role",
          "type": "bytes32"
        }
      ],
      "name": "getRoleAdmin",
      "outputs": [
        {
          "internalType": "bytes32",
          "name": "",
          "type": "bytes32"
        }
      ],
      "stateMutability": "view",
      "type": "function"
    },
    {
      "inputs": [
        {
          "internalType": "bytes32",
          "name": "role",
          "type": "bytes32"
        },
        {
          "internalType": "uint256",
          "name": "index",
          "type": "uint256"
        }
      ],
      "name": "getRoleMember",
      "outputs": [
        {
          "internalType": "address",
          "name": "",
          "type": "address"
        }
      ],
      "stateMutability": "view",
      "type": "function"
    },
    {
      "inputs": [
        {
          "internalType": "bytes32",
          "name": "role",
          "type": "bytes32"
        }
      ],
      "name": "getRoleMemberCount",
      "outputs": [
        {
          "internalType": "uint256",
          "name": "",
          "type": "uint256"
        }
      ],
      "stateMutability": "view",
      "type": "function"
    },
    {
      "inputs": [
        {
          "internalType": "bytes32",
          "name": "role",
          "type": "bytes32"
        },
        {
          "internalType": "address",
          "name": "account",
          "type": "address"
        }
      ],
      "name": "grantRole",
      "outputs": [],
      "stateMutability": "nonpayable",
      "type": "function"
    },
    {
      "inputs": [
        {
          "internalType": "bytes32",
          "name": "role",
          "type": "bytes32"
        },
        {
          "internalType": "address",
          "name": "account",
          "type": "address"
        }
      ],
      "name": "hasRole",
      "outputs": [
        {
          "internalType": "bool",
          "name": "",
          "type": "bool"
        }
      ],
      "stateMutability": "view",
      "type": "function"
    },
    {
      "inputs": [
        {
          "internalType": "address",
          "name": "owner",
          "type": "address"
        },
        {
          "internalType": "address",
          "name": "operator",
          "type": "address"
        }
      ],
      "name": "isApprovedForAll",
      "outputs": [
        {
          "internalType": "bool",
          "name": "",
          "type": "bool"
        }
      ],
      "stateMutability": "view",
      "type": "function"
    },
    {
      "inputs": [
        {
          "internalType": "address",
          "name": "to",
          "type": "address"
        }
      ],
      "name": "mint",
      "outputs": [],
      "stateMutability": "nonpayable",
      "type": "function"
    },
    {
      "inputs": [
        {
          "internalType": "string",
          "name": "_color",
          "type": "string"
        }
      ],
      "name": "mint",
      "outputs": [],
      "stateMutability": "nonpayable",
      "type": "function"
    },
    {
      "inputs": [],
      "name": "name",
      "outputs": [
        {
          "internalType": "string",
          "name": "",
          "type": "string"
        }
      ],
      "stateMutability": "view",
      "type": "function"
    },
    {
      "inputs": [
        {
          "internalType": "uint256",
          "name": "tokenId",
          "type": "uint256"
        }
      ],
      "name": "ownerOf",
      "outputs": [
        {
          "internalType": "address",
          "name": "",
          "type": "address"
        }
      ],
      "stateMutability": "view",
      "type": "function"
    },
    {
      "inputs": [],
      "name": "pause",
      "outputs": [],
      "stateMutability": "nonpayable",
      "type": "function"
    },
    {
      "inputs": [],
      "name": "paused",
      "outputs": [
        {
          "internalType": "bool",
          "name": "",
          "type": "bool"
        }
      ],
      "stateMutability": "view",
      "type": "function"
    },
    {
      "inputs": [
        {
          "internalType": "bytes32",
          "name": "role",
          "type": "bytes32"
        },
        {
          "internalType": "address",
          "name": "account",
          "type": "address"
        }
      ],
      "name": "renounceRole",
      "outputs": [],
      "stateMutability": "nonpayable",
      "type": "function"
    },
    {
      "inputs": [
        {
          "internalType": "bytes32",
          "name": "role",
          "type": "bytes32"
        },
        {
          "internalType": "address",
          "name": "account",
          "type": "address"
        }
      ],
      "name": "revokeRole",
      "outputs": [],
      "stateMutability": "nonpayable",
      "type": "function"
    },
    {
      "inputs": [
        {
          "internalType": "address",
          "name": "from",
          "type": "address"
        },
        {
          "internalType": "address",
          "name": "to",
          "type": "address"
        },
        {
          "internalType": "uint256",
          "name": "tokenId",
          "type": "uint256"
        }
      ],
      "name": "safeTransferFrom",
      "outputs": [],
      "stateMutability": "nonpayable",
      "type": "function"
    },
    {
      "inputs": [
        {
          "internalType": "address",
          "name": "from",
          "type": "address"
        },
        {
          "internalType": "address",
          "name": "to",
          "type": "address"
        },
        {
          "internalType": "uint256",
          "name": "tokenId",
          "type": "uint256"
        },
        {
          "internalType": "bytes",
          "name": "_data",
          "type": "bytes"
        }
      ],
      "name": "safeTransferFrom",
      "outputs": [],
      "stateMutability": "nonpayable",
      "type": "function"
    },
    {
      "inputs": [
        {
          "internalType": "address",
          "name": "operator",
          "type": "address"
        },
        {
          "internalType": "bool",
          "name": "approved",
          "type": "bool"
        }
      ],
      "name": "setApprovalForAll",
      "outputs": [],
      "stateMutability": "nonpayable",
      "type": "function"
    },
    {
      "inputs": [
        {
          "internalType": "bytes4",
          "name": "interfaceId",
          "type": "bytes4"
        }
      ],
      "name": "supportsInterface",
      "outputs": [
        {
          "internalType": "bool",
          "name": "",
          "type": "bool"
        }
      ],
      "stateMutability": "view",
      "type": "function"
    },
    {
      "inputs": [],
      "name": "symbol",
      "outputs": [
        {
          "internalType": "string",
          "name": "",
          "type": "string"
        }
      ],
      "stateMutability": "view",
      "type": "function"
    },
    {
      "inputs": [
        {
          "internalType": "uint256",
          "name": "index",
          "type": "uint256"
        }
      ],
      "name": "tokenByIndex",
      "outputs": [
        {
          "internalType": "uint256",
          "name": "",
          "type": "uint256"
        }
      ],
      "stateMutability": "view",
      "type": "function"
    },
    {
      "inputs": [
        {
          "internalType": "address",
          "name": "owner",
          "type": "address"
        },
        {
          "internalType": "uint256",
          "name": "index",
          "type": "uint256"
        }
      ],
      "name": "tokenOfOwnerByIndex",
      "outputs": [
        {
          "internalType": "uint256",
          "name": "",
          "type": "uint256"
        }
      ],
      "stateMutability": "view",
      "type": "function"
    },
    {
      "inputs": [
        {
          "internalType": "uint256",
          "name": "tokenId",
          "type": "uint256"
        }
      ],
      "name": "tokenURI",
      "outputs": [
        {
          "internalType": "string",
          "name": "",
          "type": "string"
        }
      ],
      "stateMutability": "view",
      "type": "function"
    },
    {
      "inputs": [],
      "name": "totalSupply",
      "outputs": [
        {
          "internalType": "uint256",
          "name": "",
          "type": "uint256"
        }
      ],
      "stateMutability": "view",
      "type": "function"
    },
    {
      "inputs": [
        {
          "internalType": "address",
          "name": "from",
          "type": "address"
        },
        {
          "internalType": "address",
          "name": "to",
          "type": "address"
        },
        {
          "internalType": "uint256",
          "name": "tokenId",
          "type": "uint256"
        }
      ],
      "name": "transferFrom",
      "outputs": [],
      "stateMutability": "nonpayable",
      "type": "function"
    },
    {
      "inputs": [],
      "name": "unpause",
      "outputs": [],
      "stateMutability": "nonpayable",
      "type": "function"
    }
  ],
  "bytecode": "0x60806040523480156200001157600080fd5b506040518060400160405280600581526020017f436f6c6f720000000000000000000000000000000000000000000000000000008152506040518060400160405280600581526020017f434f4c4f520000000000000000000000000000000000000000000000000000008152506040518060400160405280601681526020017f687474703a2f2f636f6c6f722e636f6d2f746f6b656e0000000000000000000081525082828160029080519060200190620000ce9291906200057a565b508060039080519060200190620000e79291906200057a565b5050506000600c60006101000a81548160ff02191690831515021790555080600e90805190602001906200011d9291906200057a565b50620001426000801b620001366200021860201b60201c565b6200022060201b60201c565b620001837f9f2df0fed2c77648de5860a4cc508cd0818c85b8b8a1ab4ceeef8d981c8956a6620001776200021860201b60201c565b6200022060201b60201c565b620001c47f65d7a28e3265b37a6474929f336521b332c1681b933f6cb9f3376673440d862a620001b86200021860201b60201c565b6200022060201b60201c565b505050620002126040518060400160405280601081526020017f436f6e74726163742063726561746564000000000000000000000000000000008152506200026860201b6200155a1760201c565b62000757565b600033905090565b6200023782826200030b60201b620015f31760201c565b6200026381600160008581526020019081526020016000206200032160201b620016011790919060201c565b505050565b62000308816040516024016200027f91906200066b565b6040516020818303038152906040527f41304fac000000000000000000000000000000000000000000000000000000007bffffffffffffffffffffffffffffffffffffffffffffffffffffffff19166020820180517bffffffffffffffffffffffffffffffffffffffffffffffffffffffff83818316178352505050506200035960201b60201c565b50565b6200031d82826200038260201b60201c565b5050565b600062000351836000018373ffffffffffffffffffffffffffffffffffffffff1660001b6200047360201b60201c565b905092915050565b60008151905060006a636f6e736f6c652e6c6f679050602083016000808483855afa5050505050565b620003948282620004ed60201b60201c565b6200046f57600160008084815260200190815260200160002060000160008373ffffffffffffffffffffffffffffffffffffffff1673ffffffffffffffffffffffffffffffffffffffff16815260200190815260200160002060006101000a81548160ff021916908315150217905550620004146200021860201b60201c565b73ffffffffffffffffffffffffffffffffffffffff168173ffffffffffffffffffffffffffffffffffffffff16837f2f8788117e7eff1d82e926ec794901d17c78024a50270940304540a733656f0d60405160405180910390a45b5050565b60006200048783836200055760201b60201c565b620004e2578260000182908060018154018082558091505060019003906000526020600020016000909190919091505582600001805490508360010160008481526020019081526020016000208190555060019050620004e7565b600090505b92915050565b600080600084815260200190815260200160002060000160008373ffffffffffffffffffffffffffffffffffffffff1673ffffffffffffffffffffffffffffffffffffffff16815260200190815260200160002060009054906101000a900460ff16905092915050565b600080836001016000848152602001908152602001600020541415905092915050565b8280546200058890620006e1565b90600052602060002090601f016020900481019282620005ac5760008555620005f8565b82601f10620005c757805160ff1916838001178555620005f8565b82800160010185558215620005f8579182015b82811115620005f7578251825591602001919060010190620005da565b5b5090506200060791906200060b565b5090565b5b80821115620006265760008160009055506001016200060c565b5090565b600062000637826200068f565b6200064381856200069a565b935062000655818560208601620006ab565b620006608162000746565b840191505092915050565b600060208201905081810360008301526200068781846200062a565b905092915050565b600081519050919050565b600082825260208201905092915050565b60005b83811015620006cb578082015181840152602081019050620006ae565b83811115620006db576000848401525b50505050565b60006002820490506001821680620006fa57607f821691505b6020821081141562000711576200071062000717565b5b50919050565b7f4e487b7100000000000000000000000000000000000000000000000000000000600052602260045260246000fd5b6000601f19601f8301169050919050565b614ca080620007676000396000f3fe608060405234801561001057600080fd5b50600436106101fb5760003560e01c80636a6278421161011a578063b88d4fde116100ad578063d53913931161007c578063d5391393146105e6578063d547741f14610604578063d85d3d2714610620578063e63ab1e91461063c578063e985e9c51461065a576101fb565b8063b88d4fde1461053a578063bd11f69d14610556578063c87b56dd14610586578063ca15c873146105b6576101fb565b806391d14854116100e957806391d14854146104b257806395d89b41146104e2578063a217fddf14610500578063a22cb4651461051e576101fb565b80636a6278421461042c57806370a08231146104485780638456cb59146104785780639010d07c14610482576101fb565b80632f745c591161019257806342966c681161016157806342966c68146103925780634f6ccce7146103ae5780635c975abb146103de5780636352211e146103fc576101fb565b80632f745c591461032057806336568abe146103505780633f4ba83a1461036c57806342842e0e14610376576101fb565b806318160ddd116101ce57806318160ddd1461029a57806323b872dd146102b8578063248a9ca3146102d45780632f2ff15d14610304576101fb565b806301ffc9a71461020057806306fdde0314610230578063081812fc1461024e578063095ea7b31461027e575b600080fd5b61021a6004803603810190610215919061360d565b61068a565b6040516102279190613c1e565b60405180910390f35b61023861069c565b6040516102459190613c54565b60405180910390f35b610268600480360381019061026391906136a0565b61072e565b6040516102759190613bb7565b60405180910390f35b61029860048036038101906102939190613530565b6107b3565b005b6102a26108cb565b6040516102af919061402d565b60405180910390f35b6102d260048036038101906102cd919061342a565b6108d8565b005b6102ee60048036038101906102e9919061356c565b610938565b6040516102fb9190613c39565b60405180910390f35b61031e60048036038101906103199190613595565b610957565b005b61033a60048036038101906103359190613530565b61098b565b604051610347919061402d565b60405180910390f35b61036a60048036038101906103659190613595565b610a30565b005b610374610a64565b005b610390600480360381019061038b919061342a565b610ade565b005b6103ac60048036038101906103a791906136a0565b610afe565b005b6103c860048036038101906103c391906136a0565b610b5a565b6040516103d5919061402d565b60405180910390f35b6103e6610bf1565b6040516103f39190613c1e565b60405180910390f35b610416600480360381019061041191906136a0565b610c08565b6040516104239190613bb7565b60405180910390f35b610446600480360381019061044191906133c5565b610cba565b005b610462600480360381019061045d91906133c5565b610d4a565b60405161046f919061402d565b60405180910390f35b610480610e02565b005b61049c600480360381019061049791906135d1565b610e7c565b6040516104a99190613bb7565b60405180910390f35b6104cc60048036038101906104c79190613595565b610eab565b6040516104d99190613c1e565b60405180910390f35b6104ea610f15565b6040516104f79190613c54565b60405180910390f35b610508610fa7565b6040516105159190613c39565b60405180910390f35b610538600480360381019061053391906134f4565b610fae565b005b610554600480360381019061054f9190613479565b61112f565b005b610570600480360381019061056b91906136a0565b611191565b60405161057d9190613c54565b60405180910390f35b6105a0600480360381019061059b91906136a0565b61123d565b6040516105ad9190613c54565b60405180910390f35b6105d060048036038101906105cb919061356c565b6112e4565b6040516105dd919061402d565b60405180910390f35b6105ee611308565b6040516105fb9190613c39565b60405180910390f35b61061e60048036038101906106199190613595565b61132c565b005b61063a6004803603810190610635919061365f565b611360565b005b6106446114a2565b6040516106519190613c39565b60405180910390f35b610674600480360381019061066f91906133ee565b6114c6565b6040516106819190613c1e565b60405180910390f35b600061069582611631565b9050919050565b6060600280546106ab9061428d565b80601f01602080910402602001604051908101604052809291908181526020018280546106d79061428d565b80156107245780601f106106f957610100808354040283529160200191610724565b820191906000526020600020905b81548152906001019060200180831161070757829003601f168201915b5050505050905090565b6000610739826116ab565b610778576040517f08c379a000000000000000000000000000000000000000000000000000000000815260040161076f90613eed565b60405180910390fd5b6006600083815260200190815260200160002060009054906101000a900473ffffffffffffffffffffffffffffffffffffffff169050919050565b60006107be82610c08565b90508073ffffffffffffffffffffffffffffffffffffffff168373ffffffffffffffffffffffffffffffffffffffff16141561082f576040517f08c379a000000000000000000000000000000000000000000000000000000000815260040161082690613f4d565b60405180910390fd5b8073ffffffffffffffffffffffffffffffffffffffff1661084e611717565b73ffffffffffffffffffffffffffffffffffffffff16148061087d575061087c81610877611717565b6114c6565b5b6108bc576040517f08c379a00000000000000000000000000000000000000000000000000000000081526004016108b390613e6d565b60405180910390fd5b6108c6838361171f565b505050565b6000600a80549050905090565b6108e96108e3611717565b826117d8565b610928576040517f08c379a000000000000000000000000000000000000000000000000000000000815260040161091f90613f6d565b60405180910390fd5b6109338383836118b6565b505050565b6000806000838152602001908152602001600020600101549050919050565b6109618282611b12565b610986816001600085815260200190815260200160002061160190919063ffffffff16565b505050565b600061099683610d4a565b82106109d7576040517f08c379a00000000000000000000000000000000000000000000000000000000081526004016109ce90613d4d565b60405180910390fd5b600860008473ffffffffffffffffffffffffffffffffffffffff1673ffffffffffffffffffffffffffffffffffffffff168152602001908152602001600020600083815260200190815260200160002054905092915050565b610a3a8282611b78565b610a5f8160016000858152602001908152602001600020611bfb90919063ffffffff16565b505050565b610a957f65d7a28e3265b37a6474929f336521b332c1681b933f6cb9f3376673440d862a610a90611717565b610eab565b610ad4576040517f08c379a0000000000000000000000000000000000000000000000000000000008152600401610acb90613fed565b60405180910390fd5b610adc611c2b565b565b610af98383836040518060200160405280600081525061112f565b505050565b610b0f610b09611717565b826117d8565b610b4e576040517f08c379a0000000000000000000000000000000000000000000000000000000008152600401610b4590613fcd565b60405180910390fd5b610b5781611ccd565b50565b6000610b646108cb565b8210610ba5576040517f08c379a0000000000000000000000000000000000000000000000000000000008152600401610b9c90613f8d565b60405180910390fd5b600a8281548110610bdf577f4e487b7100000000000000000000000000000000000000000000000000000000600052603260045260246000fd5b90600052602060002001549050919050565b6000600c60009054906101000a900460ff16905090565b6000806004600084815260200190815260200160002060009054906101000a900473ffffffffffffffffffffffffffffffffffffffff169050600073ffffffffffffffffffffffffffffffffffffffff168173ffffffffffffffffffffffffffffffffffffffff161415610cb1576040517f08c379a0000000000000000000000000000000000000000000000000000000008152600401610ca890613ead565b60405180910390fd5b80915050919050565b610ceb7f9f2df0fed2c77648de5860a4cc508cd0818c85b8b8a1ab4ceeef8d981c8956a6610ce6611717565b610eab565b610d2a576040517f08c379a0000000000000000000000000000000000000000000000000000000008152600401610d2190613fad565b60405180910390fd5b610d3d81610d38600d611dde565b611dec565b610d47600d611fba565b50565b60008073ffffffffffffffffffffffffffffffffffffffff168273ffffffffffffffffffffffffffffffffffffffff161415610dbb576040517f08c379a0000000000000000000000000000000000000000000000000000000008152600401610db290613e8d565b60405180910390fd5b600560008373ffffffffffffffffffffffffffffffffffffffff1673ffffffffffffffffffffffffffffffffffffffff168152602001908152602001600020549050919050565b610e337f65d7a28e3265b37a6474929f336521b332c1681b933f6cb9f3376673440d862a610e2e611717565b610eab565b610e72576040517f08c379a0000000000000000000000000000000000000000000000000000000008152600401610e6990613dad565b60405180910390fd5b610e7a611fd0565b565b6000610ea3826001600086815260200190815260200160002061207390919063ffffffff16565b905092915050565b600080600084815260200190815260200160002060000160008373ffffffffffffffffffffffffffffffffffffffff1673ffffffffffffffffffffffffffffffffffffffff16815260200190815260200160002060009054906101000a900460ff16905092915050565b606060038054610f249061428d565b80601f0160208091040260200160405190810160405280929190818152602001828054610f509061428d565b8015610f9d5780601f10610f7257610100808354040283529160200191610f9d565b820191906000526020600020905b815481529060010190602001808311610f8057829003601f168201915b5050505050905090565b6000801b81565b610fb6611717565b73ffffffffffffffffffffffffffffffffffffffff168273ffffffffffffffffffffffffffffffffffffffff161415611024576040517f08c379a000000000000000000000000000000000000000000000000000000000815260040161101b90613ded565b60405180910390fd5b8060076000611031611717565b73ffffffffffffffffffffffffffffffffffffffff1673ffffffffffffffffffffffffffffffffffffffff16815260200190815260200160002060008473ffffffffffffffffffffffffffffffffffffffff1673ffffffffffffffffffffffffffffffffffffffff16815260200190815260200160002060006101000a81548160ff0219169083151502179055508173ffffffffffffffffffffffffffffffffffffffff166110de611717565b73ffffffffffffffffffffffffffffffffffffffff167f17307eab39ab6107e8899845ad3d59bd9653f200f220920489ca2b5937696c31836040516111239190613c1e565b60405180910390a35050565b61114061113a611717565b836117d8565b61117f576040517f08c379a000000000000000000000000000000000000000000000000000000000815260040161117690613f6d565b60405180910390fd5b61118b8484848461208d565b50505050565b600f81815481106111a157600080fd5b9060005260206000200160009150905080546111bc9061428d565b80601f01602080910402602001604051908101604052809291908181526020018280546111e89061428d565b80156112355780601f1061120a57610100808354040283529160200191611235565b820191906000526020600020905b81548152906001019060200180831161121857829003601f168201915b505050505081565b6060611248826116ab565b611287576040517f08c379a000000000000000000000000000000000000000000000000000000000815260040161127e90613f2d565b60405180910390fd5b60006112916120e9565b905060008151116112b157604051806020016040528060008152506112dc565b806112bb8461217b565b6040516020016112cc929190613b93565b6040516020818303038152906040525b915050919050565b600061130160016000848152602001908152602001600020612328565b9050919050565b7f9f2df0fed2c77648de5860a4cc508cd0818c85b8b8a1ab4ceeef8d981c8956a681565b611336828261233d565b61135b8160016000858152602001908152602001600020611bfb90919063ffffffff16565b505050565b61139f6040518060400160405280601781526020017f547279696e6720746f206d696e7420257320636f6c6f72000000000000000000815250826123a3565b6010816040516113af9190613b7c565b908152602001604051809103902060009054906101000a900460ff161561140b576040517f08c379a000000000000000000000000000000000000000000000000000000000815260040161140290613d2d565b60405180910390fd5b600f819080600181540180825580915050600190039060005260206000200160009091909190915090805190602001906114469291906131d4565b5060006001600f8054905061145b9190614199565b90506114673382611dec565b60016010836040516114799190613b7c565b908152602001604051809103902060006101000a81548160ff0219169083151502179055505050565b7f65d7a28e3265b37a6474929f336521b332c1681b933f6cb9f3376673440d862a81565b6000600760008473ffffffffffffffffffffffffffffffffffffffff1673ffffffffffffffffffffffffffffffffffffffff16815260200190815260200160002060008373ffffffffffffffffffffffffffffffffffffffff1673ffffffffffffffffffffffffffffffffffffffff16815260200190815260200160002060009054906101000a900460ff16905092915050565b6115f08160405160240161156e9190613c54565b6040516020818303038152906040527f41304fac000000000000000000000000000000000000000000000000000000007bffffffffffffffffffffffffffffffffffffffffffffffffffffffff19166020820180517bffffffffffffffffffffffffffffffffffffffffffffffffffffffff838183161783525050505061243f565b50565b6115fd8282612468565b5050565b6000611629836000018373ffffffffffffffffffffffffffffffffffffffff1660001b612548565b905092915050565b60007f780e9d63000000000000000000000000000000000000000000000000000000007bffffffffffffffffffffffffffffffffffffffffffffffffffffffff1916827bffffffffffffffffffffffffffffffffffffffffffffffffffffffff191614806116a457506116a3826125b8565b5b9050919050565b60008073ffffffffffffffffffffffffffffffffffffffff166004600084815260200190815260200160002060009054906101000a900473ffffffffffffffffffffffffffffffffffffffff1673ffffffffffffffffffffffffffffffffffffffff1614159050919050565b600033905090565b816006600083815260200190815260200160002060006101000a81548173ffffffffffffffffffffffffffffffffffffffff021916908373ffffffffffffffffffffffffffffffffffffffff160217905550808273ffffffffffffffffffffffffffffffffffffffff1661179283610c08565b73ffffffffffffffffffffffffffffffffffffffff167f8c5be1e5ebec7d5bd14f71427d1e84f3dd0314c0f7b2291e5b200ac8c7c3b92560405160405180910390a45050565b60006117e3826116ab565b611822576040517f08c379a000000000000000000000000000000000000000000000000000000000815260040161181990613e0d565b60405180910390fd5b600061182d83610c08565b90508073ffffffffffffffffffffffffffffffffffffffff168473ffffffffffffffffffffffffffffffffffffffff16148061189c57508373ffffffffffffffffffffffffffffffffffffffff166118848461072e565b73ffffffffffffffffffffffffffffffffffffffff16145b806118ad57506118ac81856114c6565b5b91505092915050565b8273ffffffffffffffffffffffffffffffffffffffff166118d682610c08565b73ffffffffffffffffffffffffffffffffffffffff161461192c576040517f08c379a000000000000000000000000000000000000000000000000000000000815260040161192390613f0d565b60405180910390fd5b600073ffffffffffffffffffffffffffffffffffffffff168273ffffffffffffffffffffffffffffffffffffffff16141561199c576040517f08c379a000000000000000000000000000000000000000000000000000000000815260040161199390613dcd565b60405180910390fd5b6119a783838361269a565b6119b260008261171f565b6001600560008573ffffffffffffffffffffffffffffffffffffffff1673ffffffffffffffffffffffffffffffffffffffff1681526020019081526020016000206000828254611a029190614199565b925050819055506001600560008473ffffffffffffffffffffffffffffffffffffffff1673ffffffffffffffffffffffffffffffffffffffff1681526020019081526020016000206000828254611a599190614112565b92505081905550816004600083815260200190815260200160002060006101000a81548173ffffffffffffffffffffffffffffffffffffffff021916908373ffffffffffffffffffffffffffffffffffffffff160217905550808273ffffffffffffffffffffffffffffffffffffffff168473ffffffffffffffffffffffffffffffffffffffff167fddf252ad1be2c89b69c2b068fc378daa952ba7f163c4a11628f55a4df523b3ef60405160405180910390a4505050565b611b2b611b1e83610938565b611b26611717565b610eab565b611b6a576040517f08c379a0000000000000000000000000000000000000000000000000000000008152600401611b6190613ced565b60405180910390fd5b611b748282612468565b5050565b611b80611717565b73ffffffffffffffffffffffffffffffffffffffff168173ffffffffffffffffffffffffffffffffffffffff1614611bed576040517f08c379a0000000000000000000000000000000000000000000000000000000008152600401611be49061400d565b60405180910390fd5b611bf782826126aa565b5050565b6000611c23836000018373ffffffffffffffffffffffffffffffffffffffff1660001b61278b565b905092915050565b611c33610bf1565b611c72576040517f08c379a0000000000000000000000000000000000000000000000000000000008152600401611c6990613d0d565b60405180910390fd5b6000600c60006101000a81548160ff0219169083151502179055507f5db9ee0a495bf2e6ff9c91a7834c1ba4fdd244a5e8aa4e537bd38aeae4b073aa611cb6611717565b604051611cc39190613bb7565b60405180910390a1565b6000611cd882610c08565b9050611ce68160008461269a565b611cf160008361171f565b6001600560008373ffffffffffffffffffffffffffffffffffffffff1673ffffffffffffffffffffffffffffffffffffffff1681526020019081526020016000206000828254611d419190614199565b925050819055506004600083815260200190815260200160002060006101000a81549073ffffffffffffffffffffffffffffffffffffffff021916905581600073ffffffffffffffffffffffffffffffffffffffff168273ffffffffffffffffffffffffffffffffffffffff167fddf252ad1be2c89b69c2b068fc378daa952ba7f163c4a11628f55a4df523b3ef60405160405180910390a45050565b600081600001549050919050565b600073ffffffffffffffffffffffffffffffffffffffff168273ffffffffffffffffffffffffffffffffffffffff161415611e5c576040517f08c379a0000000000000000000000000000000000000000000000000000000008152600401611e5390613ecd565b60405180910390fd5b611e65816116ab565b15611ea5576040517f08c379a0000000000000000000000000000000000000000000000000000000008152600401611e9c90613d8d565b60405180910390fd5b611eb16000838361269a565b6001600560008473ffffffffffffffffffffffffffffffffffffffff1673ffffffffffffffffffffffffffffffffffffffff1681526020019081526020016000206000828254611f019190614112565b92505081905550816004600083815260200190815260200160002060006101000a81548173ffffffffffffffffffffffffffffffffffffffff021916908373ffffffffffffffffffffffffffffffffffffffff160217905550808273ffffffffffffffffffffffffffffffffffffffff16600073ffffffffffffffffffffffffffffffffffffffff167fddf252ad1be2c89b69c2b068fc378daa952ba7f163c4a11628f55a4df523b3ef60405160405180910390a45050565b6001816000016000828254019250508190555050565b611fd8610bf1565b15612018576040517f08c379a000000000000000000000000000000000000000000000000000000000815260040161200f90613e4d565b60405180910390fd5b6001600c60006101000a81548160ff0219169083151502179055507f62e78cea01bee320cd4e420270b5ea74000d11b0c9f74754ebdbfc544b05a25861205c611717565b6040516120699190613bb7565b60405180910390a1565b60006120828360000183612915565b60001c905092915050565b6120988484846118b6565b6120a4848484846129af565b6120e3576040517f08c379a00000000000000000000000000000000000000000000000000000000081526004016120da90613d6d565b60405180910390fd5b50505050565b6060600e80546120f89061428d565b80601f01602080910402602001604051908101604052809291908181526020018280546121249061428d565b80156121715780601f1061214657610100808354040283529160200191612171565b820191906000526020600020905b81548152906001019060200180831161215457829003601f168201915b5050505050905090565b606060008214156121c3576040518060400160405280600181526020017f30000000000000000000000000000000000000000000000000000000000000008152509050612323565b600082905060005b600082146121f55780806121de906142f0565b915050600a826121ee9190614168565b91506121cb565b60008167ffffffffffffffff811115612237577f4e487b7100000000000000000000000000000000000000000000000000000000600052604160045260246000fd5b6040519080825280601f01601f1916602001820160405280156122695781602001600182028036833780820191505090505b5090505b6000851461231c576001826122829190614199565b9150600a856122919190614339565b603061229d9190614112565b60f81b8183815181106122d9577f4e487b7100000000000000000000000000000000000000000000000000000000600052603260045260246000fd5b60200101907effffffffffffffffffffffffffffffffffffffffffffffffffffffffffffff1916908160001a905350600a856123159190614168565b945061226d565b8093505050505b919050565b600061233682600001612b46565b9050919050565b61235661234983610938565b612351611717565b610eab565b612395576040517f08c379a000000000000000000000000000000000000000000000000000000000815260040161238c90613e2d565b60405180910390fd5b61239f82826126aa565b5050565b61243b82826040516024016123b9929190613c76565b6040516020818303038152906040527f4b5c4277000000000000000000000000000000000000000000000000000000007bffffffffffffffffffffffffffffffffffffffffffffffffffffffff19166020820180517bffffffffffffffffffffffffffffffffffffffffffffffffffffffff838183161783525050505061243f565b5050565b60008151905060006a636f6e736f6c652e6c6f679050602083016000808483855afa5050505050565b6124728282610eab565b61254457600160008084815260200190815260200160002060000160008373ffffffffffffffffffffffffffffffffffffffff1673ffffffffffffffffffffffffffffffffffffffff16815260200190815260200160002060006101000a81548160ff0219169083151502179055506124e9611717565b73ffffffffffffffffffffffffffffffffffffffff168173ffffffffffffffffffffffffffffffffffffffff16837f2f8788117e7eff1d82e926ec794901d17c78024a50270940304540a733656f0d60405160405180910390a45b5050565b60006125548383612b57565b6125ad5782600001829080600181540180825580915050600190039060005260206000200160009091909190915055826000018054905083600101600084815260200190815260200160002081905550600190506125b2565b600090505b92915050565b60007f80ac58cd000000000000000000000000000000000000000000000000000000007bffffffffffffffffffffffffffffffffffffffffffffffffffffffff1916827bffffffffffffffffffffffffffffffffffffffffffffffffffffffff1916148061268357507f5b5e139f000000000000000000000000000000000000000000000000000000007bffffffffffffffffffffffffffffffffffffffffffffffffffffffff1916827bffffffffffffffffffffffffffffffffffffffffffffffffffffffff1916145b80612693575061269282612b7a565b5b9050919050565b6126a5838383612bf4565b505050565b6126b48282610eab565b1561278757600080600084815260200190815260200160002060000160008373ffffffffffffffffffffffffffffffffffffffff1673ffffffffffffffffffffffffffffffffffffffff16815260200190815260200160002060006101000a81548160ff02191690831515021790555061272c611717565b73ffffffffffffffffffffffffffffffffffffffff168173ffffffffffffffffffffffffffffffffffffffff16837ff6391f5c32d9c69d2a47ea670b442974b53935d1edc7fd64eb21e047a839171b60405160405180910390a45b5050565b600080836001016000848152602001908152602001600020549050600081146129095760006001826127bd9190614199565b90506000600186600001805490506127d59190614199565b90506000866000018281548110612815577f4e487b7100000000000000000000000000000000000000000000000000000000600052603260045260246000fd5b906000526020600020015490508087600001848154811061285f577f4e487b7100000000000000000000000000000000000000000000000000000000600052603260045260246000fd5b906000526020600020018190555060018361287a9190614112565b87600101600083815260200190815260200160002081905550866000018054806128cd577f4e487b7100000000000000000000000000000000000000000000000000000000600052603160045260246000fd5b6001900381819060005260206000200160009055905586600101600087815260200190815260200160002060009055600194505050505061290f565b60009150505b92915050565b600081836000018054905011612960576040517f08c379a000000000000000000000000000000000000000000000000000000000815260040161295790613cad565b60405180910390fd5b82600001828154811061299c577f4e487b7100000000000000000000000000000000000000000000000000000000600052603260045260246000fd5b9060005260206000200154905092915050565b60006129d08473ffffffffffffffffffffffffffffffffffffffff16612c4c565b15612b39578373ffffffffffffffffffffffffffffffffffffffff1663150b7a026129f9611717565b8786866040518563ffffffff1660e01b8152600401612a1b9493929190613bd2565b602060405180830381600087803b158015612a3557600080fd5b505af1925050508015612a6657506040513d601f19601f82011682018060405250810190612a639190613636565b60015b612ae9573d8060008114612a96576040519150601f19603f3d011682016040523d82523d6000602084013e612a9b565b606091505b50600081511415612ae1576040517f08c379a0000000000000000000000000000000000000000000000000000000008152600401612ad890613d6d565b60405180910390fd5b805181602001fd5b63150b7a0260e01b7bffffffffffffffffffffffffffffffffffffffffffffffffffffffff1916817bffffffffffffffffffffffffffffffffffffffffffffffffffffffff191614915050612b3e565b600190505b949350505050565b600081600001805490509050919050565b600080836001016000848152602001908152602001600020541415905092915050565b60007f5a05180f000000000000000000000000000000000000000000000000000000007bffffffffffffffffffffffffffffffffffffffffffffffffffffffff1916827bffffffffffffffffffffffffffffffffffffffffffffffffffffffff19161480612bed5750612bec82612c5f565b5b9050919050565b612bff838383612cd9565b612c07610bf1565b15612c47576040517f08c379a0000000000000000000000000000000000000000000000000000000008152600401612c3e90613ccd565b60405180910390fd5b505050565b600080823b905060008111915050919050565b60007f7965db0b000000000000000000000000000000000000000000000000000000007bffffffffffffffffffffffffffffffffffffffffffffffffffffffff1916827bffffffffffffffffffffffffffffffffffffffffffffffffffffffff19161480612cd25750612cd182612ded565b5b9050919050565b612ce4838383612e57565b600073ffffffffffffffffffffffffffffffffffffffff168373ffffffffffffffffffffffffffffffffffffffff161415612d2757612d2281612e5c565b612d66565b8173ffffffffffffffffffffffffffffffffffffffff168373ffffffffffffffffffffffffffffffffffffffff1614612d6557612d648382612ea5565b5b5b600073ffffffffffffffffffffffffffffffffffffffff168273ffffffffffffffffffffffffffffffffffffffff161415612da957612da481613012565b612de8565b8273ffffffffffffffffffffffffffffffffffffffff168273ffffffffffffffffffffffffffffffffffffffff1614612de757612de68282613155565b5b5b505050565b60007f01ffc9a7000000000000000000000000000000000000000000000000000000007bffffffffffffffffffffffffffffffffffffffffffffffffffffffff1916827bffffffffffffffffffffffffffffffffffffffffffffffffffffffff1916149050919050565b505050565b600a80549050600b600083815260200190815260200160002081905550600a81908060018154018082558091505060019003906000526020600020016000909190919091505550565b60006001612eb284610d4a565b612ebc9190614199565b9050600060096000848152602001908152602001600020549050818114612fa1576000600860008673ffffffffffffffffffffffffffffffffffffffff1673ffffffffffffffffffffffffffffffffffffffff168152602001908152602001600020600084815260200190815260200160002054905080600860008773ffffffffffffffffffffffffffffffffffffffff1673ffffffffffffffffffffffffffffffffffffffff168152602001908152602001600020600084815260200190815260200160002081905550816009600083815260200190815260200160002081905550505b6009600084815260200190815260200160002060009055600860008573ffffffffffffffffffffffffffffffffffffffff1673ffffffffffffffffffffffffffffffffffffffff16815260200190815260200160002060008381526020019081526020016000206000905550505050565b60006001600a805490506130269190614199565b90506000600b60008481526020019081526020016000205490506000600a838154811061307c577f4e487b7100000000000000000000000000000000000000000000000000000000600052603260045260246000fd5b9060005260206000200154905080600a83815481106130c4577f4e487b7100000000000000000000000000000000000000000000000000000000600052603260045260246000fd5b906000526020600020018190555081600b600083815260200190815260200160002081905550600b600085815260200190815260200160002060009055600a805480613139577f4e487b7100000000000000000000000000000000000000000000000000000000600052603160045260246000fd5b6001900381819060005260206000200160009055905550505050565b600061316083610d4a565b905081600860008573ffffffffffffffffffffffffffffffffffffffff1673ffffffffffffffffffffffffffffffffffffffff168152602001908152602001600020600083815260200190815260200160002081905550806009600084815260200190815260200160002081905550505050565b8280546131e09061428d565b90600052602060002090601f0160209004810192826132025760008555613249565b82601f1061321b57805160ff1916838001178555613249565b82800160010185558215613249579182015b8281111561324857825182559160200191906001019061322d565b5b509050613256919061325a565b5090565b5b8082111561327357600081600090555060010161325b565b5090565b600061328a6132858461406d565b614048565b9050828152602081018484840111156132a257600080fd5b6132ad84828561424b565b509392505050565b60006132c86132c38461409e565b614048565b9050828152602081018484840111156132e057600080fd5b6132eb84828561424b565b509392505050565b60008135905061330281614bf7565b92915050565b60008135905061331781614c0e565b92915050565b60008135905061332c81614c25565b92915050565b60008135905061334181614c3c565b92915050565b60008151905061335681614c3c565b92915050565b600082601f83011261336d57600080fd5b813561337d848260208601613277565b91505092915050565b600082601f83011261339757600080fd5b81356133a78482602086016132b5565b91505092915050565b6000813590506133bf81614c53565b92915050565b6000602082840312156133d757600080fd5b60006133e5848285016132f3565b91505092915050565b6000806040838503121561340157600080fd5b600061340f858286016132f3565b9250506020613420858286016132f3565b9150509250929050565b60008060006060848603121561343f57600080fd5b600061344d868287016132f3565b935050602061345e868287016132f3565b925050604061346f868287016133b0565b9150509250925092565b6000806000806080858703121561348f57600080fd5b600061349d878288016132f3565b94505060206134ae878288016132f3565b93505060406134bf878288016133b0565b925050606085013567ffffffffffffffff8111156134dc57600080fd5b6134e88782880161335c565b91505092959194509250565b6000806040838503121561350757600080fd5b6000613515858286016132f3565b925050602061352685828601613308565b9150509250929050565b6000806040838503121561354357600080fd5b6000613551858286016132f3565b9250506020613562858286016133b0565b9150509250929050565b60006020828403121561357e57600080fd5b600061358c8482850161331d565b91505092915050565b600080604083850312156135a857600080fd5b60006135b68582860161331d565b92505060206135c7858286016132f3565b9150509250929050565b600080604083850312156135e457600080fd5b60006135f28582860161331d565b9250506020613603858286016133b0565b9150509250929050565b60006020828403121561361f57600080fd5b600061362d84828501613332565b91505092915050565b60006020828403121561364857600080fd5b600061365684828501613347565b91505092915050565b60006020828403121561367157600080fd5b600082013567ffffffffffffffff81111561368b57600080fd5b61369784828501613386565b91505092915050565b6000602082840312156136b257600080fd5b60006136c0848285016133b0565b91505092915050565b6136d2816141cd565b82525050565b6136e1816141df565b82525050565b6136f0816141eb565b82525050565b6000613701826140cf565b61370b81856140e5565b935061371b81856020860161425a565b61372481614426565b840191505092915050565b600061373a826140da565b61374481856140f6565b935061375481856020860161425a565b61375d81614426565b840191505092915050565b6000613773826140da565b61377d8185614107565b935061378d81856020860161425a565b80840191505092915050565b60006137a66022836140f6565b91506137b182614437565b604082019050919050565b60006137c9602b836140f6565b91506137d482614486565b604082019050919050565b60006137ec602f836140f6565b91506137f7826144d5565b604082019050919050565b600061380f6014836140f6565b915061381a82614524565b602082019050919050565b60006138326014836140f6565b915061383d8261454d565b602082019050919050565b6000613855602b836140f6565b915061386082614576565b604082019050919050565b60006138786032836140f6565b9150613883826145c5565b604082019050919050565b600061389b601c836140f6565b91506138a682614614565b602082019050919050565b60006138be603e836140f6565b91506138c98261463d565b604082019050919050565b60006138e16024836140f6565b91506138ec8261468c565b604082019050919050565b60006139046019836140f6565b915061390f826146db565b602082019050919050565b6000613927602c836140f6565b915061393282614704565b604082019050919050565b600061394a6030836140f6565b915061395582614753565b604082019050919050565b600061396d6010836140f6565b9150613978826147a2565b602082019050919050565b60006139906038836140f6565b915061399b826147cb565b604082019050919050565b60006139b3602a836140f6565b91506139be8261481a565b604082019050919050565b60006139d66029836140f6565b91506139e182614869565b604082019050919050565b60006139f96020836140f6565b9150613a04826148b8565b602082019050919050565b6000613a1c602c836140f6565b9150613a27826148e1565b604082019050919050565b6000613a3f6029836140f6565b9150613a4a82614930565b604082019050919050565b6000613a62602f836140f6565b9150613a6d8261497f565b604082019050919050565b6000613a856021836140f6565b9150613a90826149ce565b604082019050919050565b6000613aa86031836140f6565b9150613ab382614a1d565b604082019050919050565b6000613acb602c836140f6565b9150613ad682614a6c565b604082019050919050565b6000613aee603d836140f6565b9150613af982614abb565b604082019050919050565b6000613b116030836140f6565b9150613b1c82614b0a565b604082019050919050565b6000613b346040836140f6565b9150613b3f82614b59565b604082019050919050565b6000613b57602f836140f6565b9150613b6282614ba8565b604082019050919050565b613b7681614241565b82525050565b6000613b888284613768565b915081905092915050565b6000613b9f8285613768565b9150613bab8284613768565b91508190509392505050565b6000602082019050613bcc60008301846136c9565b92915050565b6000608082019050613be760008301876136c9565b613bf460208301866136c9565b613c016040830185613b6d565b8181036060830152613c1381846136f6565b905095945050505050565b6000602082019050613c3360008301846136d8565b92915050565b6000602082019050613c4e60008301846136e7565b92915050565b60006020820190508181036000830152613c6e818461372f565b905092915050565b60006040820190508181036000830152613c90818561372f565b90508181036020830152613ca4818461372f565b90509392505050565b60006020820190508181036000830152613cc681613799565b9050919050565b60006020820190508181036000830152613ce6816137bc565b9050919050565b60006020820190508181036000830152613d06816137df565b9050919050565b60006020820190508181036000830152613d2681613802565b9050919050565b60006020820190508181036000830152613d4681613825565b9050919050565b60006020820190508181036000830152613d6681613848565b9050919050565b60006020820190508181036000830152613d868161386b565b9050919050565b60006020820190508181036000830152613da68161388e565b9050919050565b60006020820190508181036000830152613dc6816138b1565b9050919050565b60006020820190508181036000830152613de6816138d4565b9050919050565b60006020820190508181036000830152613e06816138f7565b9050919050565b60006020820190508181036000830152613e268161391a565b9050919050565b60006020820190508181036000830152613e468161393d565b9050919050565b60006020820190508181036000830152613e6681613960565b9050919050565b60006020820190508181036000830152613e8681613983565b9050919050565b60006020820190508181036000830152613ea6816139a6565b9050919050565b60006020820190508181036000830152613ec6816139c9565b9050919050565b60006020820190508181036000830152613ee6816139ec565b9050919050565b60006020820190508181036000830152613f0681613a0f565b9050919050565b60006020820190508181036000830152613f2681613a32565b9050919050565b60006020820190508181036000830152613f4681613a55565b9050919050565b60006020820190508181036000830152613f6681613a78565b9050919050565b60006020820190508181036000830152613f8681613a9b565b9050919050565b60006020820190508181036000830152613fa681613abe565b9050919050565b60006020820190508181036000830152613fc681613ae1565b9050919050565b60006020820190508181036000830152613fe681613b04565b9050919050565b6000602082019050818103600083015261400681613b27565b9050919050565b6000602082019050818103600083015261402681613b4a565b9050919050565b60006020820190506140426000830184613b6d565b92915050565b6000614052614063565b905061405e82826142bf565b919050565b6000604051905090565b600067ffffffffffffffff821115614088576140876143f7565b5b61409182614426565b9050602081019050919050565b600067ffffffffffffffff8211156140b9576140b86143f7565b5b6140c282614426565b9050602081019050919050565b600081519050919050565b600081519050919050565b600082825260208201905092915050565b600082825260208201905092915050565b600081905092915050565b600061411d82614241565b915061412883614241565b9250827fffffffffffffffffffffffffffffffffffffffffffffffffffffffffffffffff0382111561415d5761415c61436a565b5b828201905092915050565b600061417382614241565b915061417e83614241565b92508261418e5761418d614399565b5b828204905092915050565b60006141a482614241565b91506141af83614241565b9250828210156141c2576141c161436a565b5b828203905092915050565b60006141d882614221565b9050919050565b60008115159050919050565b6000819050919050565b60007fffffffff0000000000000000000000000000000000000000000000000000000082169050919050565b600073ffffffffffffffffffffffffffffffffffffffff82169050919050565b6000819050919050565b82818337600083830152505050565b60005b8381101561427857808201518184015260208101905061425d565b83811115614287576000848401525b50505050565b600060028204905060018216806142a557607f821691505b602082108114156142b9576142b86143c8565b5b50919050565b6142c882614426565b810181811067ffffffffffffffff821117156142e7576142e66143f7565b5b80604052505050565b60006142fb82614241565b91507fffffffffffffffffffffffffffffffffffffffffffffffffffffffffffffffff82141561432e5761432d61436a565b5b600182019050919050565b600061434482614241565b915061434f83614241565b92508261435f5761435e614399565b5b828206905092915050565b7f4e487b7100000000000000000000000000000000000000000000000000000000600052601160045260246000fd5b7f4e487b7100000000000000000000000000000000000000000000000000000000600052601260045260246000fd5b7f4e487b7100000000000000000000000000000000000000000000000000000000600052602260045260246000fd5b7f4e487b7100000000000000000000000000000000000000000000000000000000600052604160045260246000fd5b6000601f19601f8301169050919050565b7f456e756d657261626c655365743a20696e646578206f7574206f6620626f756e60008201527f6473000000000000000000000000000000000000000000000000000000000000602082015250565b7f4552433732315061757361626c653a20746f6b656e207472616e73666572207760008201527f68696c6520706175736564000000000000000000000000000000000000000000602082015250565b7f416363657373436f6e74726f6c3a2073656e646572206d75737420626520616e60008201527f2061646d696e20746f206772616e740000000000000000000000000000000000602082015250565b7f5061757361626c653a206e6f7420706175736564000000000000000000000000600082015250565b7f436f6c6f7220616c7265616479206d696e746564000000000000000000000000600082015250565b7f455243373231456e756d657261626c653a206f776e657220696e646578206f7560008201527f74206f6620626f756e6473000000000000000000000000000000000000000000602082015250565b7f4552433732313a207472616e7366657220746f206e6f6e20455243373231526560008201527f63656976657220696d706c656d656e7465720000000000000000000000000000602082015250565b7f4552433732313a20746f6b656e20616c7265616479206d696e74656400000000600082015250565b7f4552433732315072657365744d696e7465725061757365724175746f49643a2060008201527f6d75737420686176652070617573657220726f6c6520746f2070617573650000602082015250565b7f4552433732313a207472616e7366657220746f20746865207a65726f2061646460008201527f7265737300000000000000000000000000000000000000000000000000000000602082015250565b7f4552433732313a20617070726f766520746f2063616c6c657200000000000000600082015250565b7f4552433732313a206f70657261746f7220717565727920666f72206e6f6e657860008201527f697374656e7420746f6b656e0000000000000000000000000000000000000000602082015250565b7f416363657373436f6e74726f6c3a2073656e646572206d75737420626520616e60008201527f2061646d696e20746f207265766f6b6500000000000000000000000000000000602082015250565b7f5061757361626c653a2070617573656400000000000000000000000000000000600082015250565b7f4552433732313a20617070726f76652063616c6c6572206973206e6f74206f7760008201527f6e6572206e6f7220617070726f76656420666f7220616c6c0000000000000000602082015250565b7f4552433732313a2062616c616e636520717565727920666f7220746865207a6560008201527f726f206164647265737300000000000000000000000000000000000000000000602082015250565b7f4552433732313a206f776e657220717565727920666f72206e6f6e657869737460008201527f656e7420746f6b656e0000000000000000000000000000000000000000000000602082015250565b7f4552433732313a206d696e7420746f20746865207a65726f2061646472657373600082015250565b7f4552433732313a20617070726f76656420717565727920666f72206e6f6e657860008201527f697374656e7420746f6b656e0000000000000000000000000000000000000000602082015250565b7f4552433732313a207472616e73666572206f6620746f6b656e2074686174206960008201527f73206e6f74206f776e0000000000000000000000000000000000000000000000602082015250565b7f4552433732314d657461646174613a2055524920717565727920666f72206e6f60008201527f6e6578697374656e7420746f6b656e0000000000000000000000000000000000602082015250565b7f4552433732313a20617070726f76616c20746f2063757272656e74206f776e6560008201527f7200000000000000000000000000000000000000000000000000000000000000602082015250565b7f4552433732313a207472616e736665722063616c6c6572206973206e6f74206f60008201527f776e6572206e6f7220617070726f766564000000000000000000000000000000602082015250565b7f455243373231456e756d657261626c653a20676c6f62616c20696e646578206f60008201527f7574206f6620626f756e64730000000000000000000000000000000000000000602082015250565b7f4552433732315072657365744d696e7465725061757365724175746f49643a2060008201527f6d7573742068617665206d696e74657220726f6c6520746f206d696e74000000602082015250565b7f4552433732314275726e61626c653a2063616c6c6572206973206e6f74206f7760008201527f6e6572206e6f7220617070726f76656400000000000000000000000000000000602082015250565b7f4552433732315072657365744d696e7465725061757365724175746f49643a2060008201527f6d75737420686176652070617573657220726f6c6520746f20756e7061757365602082015250565b7f416363657373436f6e74726f6c3a2063616e206f6e6c792072656e6f756e636560008201527f20726f6c657320666f722073656c660000000000000000000000000000000000602082015250565b614c00816141cd565b8114614c0b57600080fd5b50565b614c17816141df565b8114614c2257600080fd5b50565b614c2e816141eb565b8114614c3957600080fd5b50565b614c45816141f5565b8114614c5057600080fd5b50565b614c5c81614241565b8114614c6757600080fd5b5056fea26469706673582212203c8e127a6bc7b172b9b38761e42c1bfad79fd86290205ce589c94d4a94da4dbc64736f6c63430008030033",
  "linkReferences": {},
  "deployedLinkReferences": {}
}